:020000040800F2
:10000000284C0020E1020008E9020008EB02000889
:10001000ED020008EF020008F102000800000000F5
:10002000000000000000000000000000290200089D
:10003000F5020008000000007D020008750A0008B3
:10004000FB020008FB020008FB020008FB0200089C
:10005000FB020008FB020008FB020008FB0200088C
:10006000FB020008FB020008FB020008FB0200087C
:10007000FB020008FB020008FB020008FB0200086C
:10008000FB020008FB020008FB020008FB0200085C
:10009000FB020008FB020008FB020008FB0200084C
:1000A000FB020008FB020008FB020008FB0200083C
:1000B0002D0B0008E90B0008FB020008FB020008FA
:1000C000FB020008FB020008FB020008FB0200081C
:1000D000FB020008050C0008FB020008FB020008F8
:1000E000FB020008FB020008FB020008FB020008FC
:1000F000FB020008FB020008FB020008FB020008EC
:10010000000000000000000000000000FB020008EA
:10011000FB020008FB020008FB020008FB020008CB
:10012000FB020008FB020008FB020008FB020008BB
:10013000FB020008FB0200080000000000000000B5
:10014000FB020008FB020008FB02000800000000A0
:10015000000000000000000000000000000000009F
:100160000000000000000000FB020008FB02000885
:10017000FB0200080000000000000000000000007A
:1001800000000000FB02000800F002F800F03CF85C
:100190000AA090E8000C82448344AAF10107DA45E2
:1001A00001D100F031F8AFF2090EBAE80F0013F0F8
:1001B000010F18BFFB1A43F0010318474830000035
:1001C00068300000103A24BF78C878C1FAD85207C6
:1001D00024BF30C830C144BF04680C6070470000C1
:1001E0000023002400250026103A28BF78C1FBD840
:1001F000520728BF30C148BF0B6070471FB502F0DF
:100200008FFF1FBD10B510BD00F004F91146FFF7B8
:10021000F5FF00F0E9FD00F022F903B4FFF7F2FF6B
:1002200003BC00F029F900002A4B19680868B0E8FF
:10023000F04F80F30988BFF36F8F4FF0000080F319
:10024000118870470000000006480068006880F3CD
:10025000088862B661B6BFF34F8FBFF36F8F00DFC0
:1002600000BF00BF08ED00E0DFF80C00016841F4BA
:1002700070010160704700BF88ED00E0EFF3098076
:10028000BFF36F8F134B1A681EF0100F08BF20EDDD
:10029000108A20E9F04F106008B44FF0BF0080F3DF
:1002A0001188BFF34F8FBFF36F8F02F02BFB4FF01E
:1002B000000080F3118808BC19680868B0E8F04FA6
:1002C0001EF0100F08BFB0EC108A80F30988BFF34E
:1002D0006F8F7047B8000020EFF305807047000073
:1002E0000948804709480047FEE7FEE7FEE7FEE7CA
:1002F000FEE7FEE7FEE7FEE7FEE7FEE70448054906
:10030000054A064B70470000A90A00088901000849
:1003100028460020284C002028480020284800209B
:10032000032A40F2308010F0030C00F0158011F821
:10033000013BBCF1020F624498BF11F801CB00F8F9
:10034000013B38BF11F8013BA2F1040298BF00F84D
:1003500001CB38BF00F8013B11F0030300F0288007
:10036000083AC0F0088051F8043B083A51F804CB31
:10037000A0E80810F5E7121D5CBF51F8043B40F8F7
:10038000043BAFF30080D20724BF11F8013B11F802
:1003900001CB48BF11F8012B24BF00F8013B00F846
:1003A00001CB48BF00F8012B70477047704770477A
:1003B00010B5203AC0F00B80B1E81850203AA0E800
:1003C0001850B1E81850A0E81850BFF4F5AF5FEA34
:1003D000027C24BFB1E81850A0E8185044BF18C9E7
:1003E00018C0BDE810405FEA827C24BF51F8043B8E
:1003F00040F8043B08BF7047D20728BF31F8023BE2
:1004000048BF11F8012B28BF20F8023B48BF00F875
:10041000012B7047754600F02BF8AE460500694683
:10042000534620F00700854618B020B5FFF766FF59
:10043000BDE820404FF000064FF000074FF00008E5
:100440004FF0000B21F00701AC46ACE8C009ACE866
:10045000C009ACE8C009ACE8C0098D46704710B5CA
:100460000446AFF300802046BDE81040FFF7D5BE3C
:1004700000487047C845002001491820ABBEFEE780
:100480002600020070470000F0B5DDE9054500EBED
:1004900040066D4F57F82660366800EB4007DFF8DE
:1004A000A8C10CEB87073F794FEA470C012707FAF1
:1004B0000CF7BE4300EB4007DFF88CC15CF82770F7
:1004C0003E6000EB4006674657F82660366800EB52
:1004D00040070CEB87073F797F0001FA07F73E439F
:1004E00000EB40075CF827703E6000EB4006674673
:1004F00057F82660B68800EB40070CEB87073F797A
:100500004FEA470C012707FA0CF7BE4300EB400700
:10051000DFF834C15CF82770BE8000EB4006674608
:1005200057F82660B68800EB40070CEB87073F7949
:100530007F0003FA07F73E4300EB40075CF82770A3
:10054000BE8000EB4006674657F82660B66800EBB1
:1005500040070CEB87073F794FEA470C012707FA62
:100560000CF7BE4300EB4007DFF8DCC05CF82770F7
:10057000BE6000EB4006674657F82660B66800EBA1
:1005800040070CEB87073F797F0002FA07F73E43ED
:1005900000EB40075CF82770BE6000EB4006674642
:1005A00057F82660F66800EB40070CEB87073F79A9
:1005B0004FEA470C012707FA0CF7BE4300EB400750
:1005C000DFF884C05CF82770FE6000EB40066746E9
:1005D00057F82660F66800EB40070CEB87073F7979
:1005E0007F0004FA07F73E4300EB40075CF82770F2
:1005F000FE6000EB4006674657F82660B68A00EBBF
:1006000040070CEB870797F804C0012707FA0CF79F
:10061000BE4300EB4007DFF830C05CF82770BE82B5
:1006200000EB4006674657F82660B68A00EB4007A5
:100630000CEB87073F7905FA07F73E4300EB4007CD
:100640005CF82770BE82F0BD2C31000801461229EB
:1006500013DC01EB41000A4A52F82000008A01EB4A
:100660004102074B03EB8202137901229A401040AA
:1006700008B1012070470020FCE70020FAE70000E5
:100680002C3100087CB500242248406940F4003039
:10069000204948610846406940F480204861084686
:1006A000406940F4002048610846406940F48010E9
:1006B00048610846406940F40010486108464069B6
:1006C00040F48000486100BF21E004EB440012497F
:1006D00001EB8000807A04EB44010F4A02EB8101B8
:1006E000497A04EB4405164606EB8505CDE9001072
:1006F0002B7A04EB440506EB8505EA7904EB440507
:1007000006EB8505A979E0B2FFF7BEFE641C122C4A
:10071000DBDB7CBD001002402C31000810B571B14C
:1007200000EB40020D4B03EB8202137901229A4049
:1007300000EB4003094C54F823309A610DE000EBC4
:100740004002064B03EB8202137901229A4000EB30
:100750004003024C54F823301A8510BD2C31000898
:1007600000F01F02012191404209920002F1E022B3
:10077000C2F800117047000010B5002807DA0A0718
:10078000140E054A00F00F031B1FD45403E00A07A0
:10079000130E024A135410BD18ED00E000E400E00F
:1007A00010B5002807DA0A07140E054A00F00F03F7
:1007B0001B1FD45403E00A07130E024A135410BD42
:1007C00018ED00E000E400E037B5054614460023CC
:1007D0005A1E01A9284602F0F3F92146014801F00A
:1007E0000BFC3EBD003801400CB50020019000908C
:1007F0002B48006840F480302949086000BF284831
:10080000006800F4003000900198401C01900098AE
:1008100018B90198B0F5A04FF1D12148006800F453
:10082000003010B10120009001E0002000900098FD
:10083000012834D112201B49086019484068184922
:100840004860084640684860084640684860084676
:10085000406820F47C1048600846406840F4E81086
:1008600048600846006840F08070086000BF0C488F
:10087000006800F000700028F9D00948406820F0B6
:100880000300074948600846406840F0020048609D
:1008900000BF0348406800F00C000828F9D10CBDE7
:1008A00000100240002002401CB55348006801219E
:1008B00000238022CDE9001050A1524802F076FAC0
:1008C000012801D000BF00BF00220621322002F023
:1008D0006DF84D49086000220221012002F066F8FF
:1008E0004A49086003220021012002F05FF84849CC
:1008F000086003220021012002F058F845490860F1
:1009000045480068012100238022CDE9001043A161
:10091000444802F04BFA012801D000BF00BF00227A
:100920000621322002F042F83F49086000220221ED
:10093000012002F03BF83D4908600322002101201C
:1009400002F034F83A49086003220021012002F045
:100950002DF83849086038480068012100238022BA
:10096000CDE9001035A1374802F020FA012801D066
:1009700000BF00BF00220621322002F017F83249E2
:10098000086000220221012002F010F82F490860BF
:1009900003220021012002F009F82D4908600322FA
:1009A0000021012002F002F82A4908602A48006864
:1009B000012100238022CDE9001028A1294802F05E
:1009C000F5F9012801D000BF00BF00220121052058
:1009D00001F0ECFF2449086000220221012001F00F
:1009E000E5FF2249086003220021012001F0DEFF1B
:1009F0001F4908601CBD0000840000204D6F746F0B
:100A000072310000C11B000800000020100000200F
:100A1000200000202C000020880000204D6F746F03
:100A200072320000691C000804000020140000203D
:100A300024000020300000208C0000204D6F746FD7
:100A400072330000111D000808000020180000206B
:100A500028000020340000209000002047726970B8
:100A600070657200891B00080C0000201C0000202B
:100A70003800002010B500BFBF2080F31188BFF3FD
:100A80004F8FBFF36F8F00BF02F0C6F918B14FF060
:100A900080500449086000BF002080F3118800BF27
:100AA00010BD000004ED00E010B51B48006840F4E4
:100AB0007000194908601948006840F001001749A2
:100AC00008600846406816490840144948600846CE
:100AD000006814490840114908600846006820F47D
:100AE000802008600846406820F4FE004860084600
:100AF000C06A20F00F00C8620846006B0A4908402F
:100B00000649086300208860FFF76EFE4FF0006022
:100B100001498039086010BD88ED00E000100240F6
:100B20000CC07FF8FFFFF6FECCFC00FF10B50020E4
:100B3000274908604FF08040006900F0010000285C
:100B400044D04FF08040006920F001004FF0804118
:100B500008612048007800F009FD50BB1D4800786E
:100B600028B91B491C48006802F0B6F812E0194881
:100B70000078012805D116491848006802F0ACF841
:100B800008E014480078022804D11149144800688C
:100B900002F0A2F80E48006801280AD10C4800684B
:100BA00038B14FF080500F490860BFF34F8FBFF34B
:100BB0006F8F08480078022803D10020054908708B
:100BC00004E004480078401C0249087010BD000091
:100BD000740000206C000020200000202400002071
:100BE0002800002004ED00E00548006800F0010046
:100BF00028B10348006820F00100014908607047EF
:100C00001004004010B500203849086038480068DA
:100C100000F02000002868D03548006820F020004F
:100C200033490860334800780C280CDA3048083023
:100C3000008831492F4A127888542E480078401C89
:100C40002C49087051E02B48007810284DDA2848CC
:100C500008300088C1B2274800780C38274A115460
:100C600024480078401C2349087008460078102862
:100C70003BD100200870104600F052F8204908606F
:100C800003211D4800F074F81E49086008460068FA
:100C90001B49096888420AD01B480088401C1A4931
:100CA00008800A2112481C3801F0A6F90EE0174806
:100CB0000088401C154908800C491548006802F05E
:100CC0000BF81D210A481C3801F096F90748006806
:100CD00001280AD10548006838B14FF080500D490D
:100CE0000860BFF34F8FBFF36F8F10BD70000020FF
:100CF0001C38014054000020F40000205500002062
:100D00005C000020600000206400002066000020DD
:100D10003C00002004ED00E0024641EA022070475A
:100D20000146087800064A7840EA02408A7840EA9C
:100D30000220CA78104370470B48406940F04000D9
:100D4000094948614FF0FF3008490861084680684A
:100D500040F00100886000BF0448806800F0010096
:100D60000028F9D170470000001002400030024016
:100D700030B502460B460020084CA46844F001043C
:100D8000064DAC60002104E052F82140034D2C6078
:100D9000491C9942F8D3014C206830BD0030024014
:100DA0000C48406940F400100A4948610A4800684C
:100DB0000A4908430849086008460068084908408D
:100DC000054908600846806806490843024988606A
:100DD0007047000000100240001000480000555508
:100DE000FFFF55550000FFFF1CB500F061FBFFF74A
:100DF000D7FF01F095F8FFF79FFFFFF743FCFFF7E0
:100E000053FD00F0D9FF00F0F7FF25480121002332
:100E10008022CDE9001023A1264801F0C7FF012858
:100E200001D000BF00BF2448012100238022CDE96A
:100E3000001022A1244801F0B9FF012801D000BF11
:100E400000BF2248012100238022CDE9001020A10B
:100E5000244801F0ABFF012801D000BF00BF2248A9
:100E6000012100238022CDE9001020A1214801F0BA
:100E70009DFF012801D000BF00BF1F4801210023B2
:100E80008022CDE900101DA11E4801F08FFF01282E
:100E900001D000BF00BF01F09DFC00201CBD000080
:100EA000500000205265616453656D6170686F7217
:100EB000650000008D23000840000020426F6F7421
:100EC0004C6F6164657200002D2100084C00002009
:100ED000426C696E6B6572426F6F744C6F616465D2
:100EE000720000000121000844000020426C696E7D
:100EF0006B657200D12000084800002053656E64C5
:100F000065720000112400082DE9F04105460E46E7
:100F10001C4807681C480068001D01F084F850B99F
:100F20001948006890F82C1001208840174909687A
:100F3000814316480160681C38B936B1124801680F
:100F4000091D134801F0E8F91AE07C190E48006801
:100F50004460BC4207D20C480168091D0D48006876
:100F600001F0C0F90CE008480168091D0A48006852
:100F700001F0B8F909480068844201D207480460CA
:100F8000BDE8F081CC000020B8000020D000002097
:100F9000B4450020C0000020BC000020E800002074
:100FA00010B5044601F0C4F923480068401C2249EA
:100FB00008602248006840B920480460084600687C
:100FC00001280DD100F040F90AE01D48006838B949
:100FD0001A480068C06AE16A884201D8174804606C
:100FE00018480068401C1749086094F82C1001202C
:100FF000884015490968084313490860E16A01EB14
:101000008101124A02EB8100211D01F085F901F0F6
:10101000A1F90B48006868B108480068C06AE16A35
:10102000884207D24FF0805009490860BFF34F8FC4
:10103000BFF36F8F10BD0000C8000020B800002073
:10104000D4000020E4000020D00000200045002053
:1010500004ED00E070B523E001F04CFC134800689B
:1010600008B9012000E00020054601F0E5FFBDB908
:1010700001F05EF90D48C068C468201D00F0D3FF80
:101080000B480068401E0A4908600A480068401E74
:101090000849086001F05EF9204600F060F800BFE2
:1010A000044800680028D7D170BD0000A04500208A
:1010B000C8000020C400002070B504460D46206C16
:1010C00070B1216CE0680844E0606168E0688842C3
:1010D00001D32068E0602846226CE168FFF720F920
:1010E00070BD2DE9F04104460F4615464FF000084B
:1010F000A66B206C40B9206860BB606801F01AFFE5
:1011000080460020606025E07DB93946226CA068E9
:10111000FFF706F9216CA0680844A060D4E901102B
:10112000884217D32068A06014E03946226CE0683A
:10113000FFF7F6F8216CE068401AE0602168E0688B
:10114000884203D2216C6068401AE060022D01D110
:1011500006B1761E701CA0634046BDE8F08110B554
:101160000446206B01F006F9204601F003F910BD9A
:1011700000BFFFF76FFF07480068012807D94FF04D
:10118000805005490860BFF34F8FBFF36F8F00F0A9
:101190005FFFEEE70045002004ED00E02DE9F0419F
:1011A00006460D4617469846069C0DB9246000E099
:1011B0002760E66325640121204601F0C1FCBDE8FB
:1011C000F0812DE9FF5F80460F469146DDE90E6A0A
:1011D000109CA9F10100216B01EB800B2BF0070B98
:1011E000002507E0795D04F134004155785D00B9D0
:1011F00002E06D1C102DF5D300BF002143200155E6
:10120000052E00D30426E66266640020A064201D3B
:1012100001F065F804F1180001F061F82461C6F1ED
:101220000500A06164620020E06484F8500041463B
:101230005846039A00F026F92060BAF1000F01D059
:10124000CAF80040BDE8FF9F10B5002407E004EB9A
:1012500084010F4A02EB810001F034F8641C052C74
:10126000F5D30C4801F02EF80B4801F02BF80B4891
:1012700001F028F80A4801F025F80A4801F022F8A0
:1012800004480949086004480849086010BD000086
:101290000045002064450020784500208C45002052
:1012A000A0450020B4450020BC000020C000002064
:1012B00070B5054601F03CF8A86B08B9012400E0C0
:1012C000002401F047F8204670BD70B5054601F0D6
:1012D0002FF8A86BE96B884201D1012400E00024BB
:1012E00001F038F8204670BD0A490968096809B953
:1012F000012100E0002121B14FF0FF31064A1160C9
:1013000006E004490968C968C868034A4168116071
:1013100070470000BC000020E800002000BFBF2094
:1013200080F31188BFF34F8FBFF36F8F00BF00BFF3
:10133000FEE7000010B5014600200A460B4C536939
:10134000A34201D1012300E0002373B1084C936A4A
:10135000A34201D1012300E0002333B9936A0BB902
:10136000012300E0002303B1012010BDB44500209B
:101370008C45002070B5044600F0DAFF94F9455022
:1013800010E0606A08B9012000E0002038B904F1DB
:10139000240001F011FE18B101F066F900E003E04D
:1013A000681E45B2002DECDC00BFFF2084F845002C
:1013B00000F0D0FF00F0BCFF94F9445010E0206929
:1013C00008B9012000E0002048B904F1100001F044
:1013D000F3FD08B101F048F9681E45B200E001E0F4
:1013E000002DECDC00BFFF2084F8440000F0B2FFC9
:1013F00070BD000070B50446002504F0070020B160
:1014000004F00700C0F10800044401F073FA124828
:10141000006820B9114820F007000F490860104803
:101420000068204444F2F831884210D20C48006829
:1014300020440B490968884209D9074800680849CF
:10144000096845180648006820440549086001F00D
:10145000F3FD284670BD0000B00000200801002008
:10146000AC0000200648006830B10549096801F168
:101470004800896C491C0160014800687047000001
:10148000B8000020001F4FF080730360001F21F0A0
:1014900001030360001F054B036014380260001F46
:1014A0006FF0020303602038704700001D1300082E
:1014B0002C48006840F480302A49086000BF294861
:1014C000006800F400300028F9D013202649086095
:1014D00024484068234948600846406848600846F8
:1014E000406840F4205048600846406820F470107E
:1014F00048600846406820F48030486008464068EC
:1015000020F4003048600846406840F4803048606D
:101510000846406840F4003048600846406840F49F
:10152000E01048600846006840F08070086000BF26
:101530000C48006800F000700028F9D009484068A5
:1015400020F00300074948600846406840F0020068
:10155000486000BF0348406800F00C000828F9D13B
:1015600070470000001002400020024010B5044601
:10157000C4EBC401044A11448879FFF767F808B145
:10158000012010BD0020FCE79400002038B504467F
:101590000D4600200090EDB90094C4EBC40000EBB0
:1015A000800041F64C51081A1D490860C4F15A00E8
:1015B000C0EBC00000EB800041F64C51081A1849FE
:1015C000091F08606422BDF8001016480068FFF784
:1015D000FBF824E0012D22D100235A1E6946114850
:1015E000006801F0FFF9C4EBC40000EB800041F695
:1015F0004C51081A0A490860C4F15A00C0EBC000F7
:1016000000EB800041F64C51081A0549091F08609B
:101610006422BDF8001003480068FFF7D5F838BD14
:10162000400800401C00002070B504460D46052D02
:101630007ED2DFE805F0031C354E6700C4EBC40121
:101640003F4A1144C8780021FFF768F8C4EBC40191
:101650003B4A114408790021FFF760F8C4EBC4014C
:10166000374A114448790021FFF758F866E0C4EB87
:10167000C401334A1144C8780121FFF74FF8C4EB85
:10168000C4012F4A114408790021FFF747F8C4EB41
:10169000C4012B4A114448790021FFF73FF84DE07F
:1016A000C4EBC401264A1144C8780021FFF736F87C
:1016B000C4EBC401224A114408790121FFF72EF836
:1016C000C4EBC4011E4A114448790021FFF726F8F3
:1016D00034E0C4EBC4011A4A1144C8780121FFF771
:1016E0001DF8C4EBC401164A114408790121FFF723
:1016F00015F8C4EBC401124A114448790021FFF7E0
:101700000DF81BE0C4EBC4010D4A1144C878012157
:10171000FFF704F8C4EBC401094A11440879012118
:10172000FEF7FCFFC4EBC401054A1144487900E010
:1017300003E00121FEF7F2FF00E000BF00BF70BD33
:1017400094000020FFB581B017461E46002000908F
:1017500001249DF80410C1EBC101EE4A11448878C0
:101760000021FEF7DBFF9DF80400022805D09DF85C
:1017700009109DF80400FFF757FF012E21D19DF8B5
:10178000040038B900235A1E6946E348006801F096
:1017900029F916E09DF80400012807D10023821ED4
:1017A0006946DE48006801F01DF90AE09DF8040072
:1017B000022806D10023C21E6946D948006801F0FC
:1017C00011F99DF8050000B96442002599E1002354
:1017D0001A461946384601F005F9002875D0D14857
:1017E0000068874235D14EB9002000905422BDF8E0
:1017F0000010C9480068FEF7E7FF87E1012E74D1A9
:10180000BDF800002044002807DA7022BDF800105F
:10181000C1480068FEF7D8FF78E1BDF80000204419
:1018200080B20090BDF80600401EA84206D15422A6
:10183000BDF80010B8480068FEF7C6FF9DF8051017
:101840009DF8040000F074F99DF8080000F0F2FE25
:1018500055E1B5480068874238D14EB90020009064
:101860004422BDF80010AD480068FEF7ADFF4DE121
:10187000012E66D1BDF800002044002809DA0020BE
:1018800000907122BDF80010A4480068FEF79CFF8C
:101890003CE1BDF80000204480B20090BDF8060095
:1018A000401EA84206D14422BDF800109B480068A3
:1018B000FEF78AFF9DF805109DF8040000F038F946
:1018C0009DF8080000F0B6FE19E13DE09748006879
:1018D000874236D156B9002000906422BDF800102E
:1018E0008F480068FEF770FF10E12AE0012E28D132
:1018F000BDF800002044002807DA7222BDF800106D
:1019000087480068FEF760FF00E1BDF80000204452
:1019100080B20090BDF80600401EA84206D16422A5
:10192000BDF800107E480068FEF74EFF9DF80510D8
:101930009DF8040000F0FCF89DF8080000F07AFE25
:10194000DDE0002005B0F0BD9DF80400E8BBBDF867
:101950000000204400280DDA0A2000F06BFE002071
:1019600000907022BDF800106B480068FEF72CFF55
:101970000120E7E7BDF800002044B0F5FA5F0EDD76
:101980000A2000F057FE4FF4FA5000907022BDF884
:10199000001061480068FEF717FF0120D2E7BDF88C
:1019A0000000204480B20090BDF80600401EA8420E
:1019B00006D15422BDF8001057480068FEF704FF16
:1019C0009DF805109DF8040000E006E000F0B0F876
:1019D0009DF8080000F02EFE91E09DF8040001281B
:1019E00043D1BDF80000204400280DDA0A2000F0A1
:1019F00021FE002000907122BDF8001047480068C9
:101A0000FEF7E2FE01209DE7BDF800002044B0F59E
:101A10007A6F0EDD0A2000F00DFE4FF47A60009020
:101A20007122BDF800103D480068FEF7CDFE012090
:101A300088E7BDF80000204480B20090BDF80600A1
:101A4000401EA84206D14422BDF800103348006869
:101A5000FEF7BAFE9DF805109DF8040000F068F846
:101A60009DF8080000F0E6FD49E09DF8040002281A
:101A700043D1BDF80000204400280DDA0A2000F010
:101A8000D9FD002000907222BDF8001024480068A3
:101A9000FEF79AFE012055E7BDF800002044B0F59E
:101AA000FA5F0EDD0A2000F0C5FD4FF4FA500090F9
:101AB0007222BDF800101A480068FEF785FE01206A
:101AC00040E7BDF80000204480B20090BDF8060059
:101AD000401EA84206D16422BDF8001010480068DC
:101AE000FEF772FE9DF805109DF8040000F020F846
:101AF0009DF8080000F09EFD01E0002022E7681C30
:101B000085B2BDF80600A8423FF761AE00BF00BF36
:101B100018E70000940000201000002014000020AE
:101B200018000020200000202400002028000020B1
:101B300070B504460D460DB1012200E000221146A9
:101B4000C4EBC4020E4B985CFEF7E8FDC4EBC40185
:101B50000B4A114448780021FEF7E0FD4FF0805019
:101B600008490860BFF34F8FBFF36F8FC4EBC40108
:101B7000034A114448780121FEF7D0FD70BD0000F2
:101B80009400002004ED00E008B513E000235A1E85
:101B900069460948006800F025FF58B101219DF809
:101BA0000000FFF7F3FC00231A46194603480068BB
:101BB00001F006F8EAE700000C00002038000020E1
:101BC0000EB5002000900024002541E000235A1E9D
:101BD00001A92048006800F005FF002838D0012343
:101BE0001D480268DDE90101FFF7ACFD012820D0A6
:101BF00001239A1E69461948006800F0F3FEBDF8FB
:101C000000000512BDF80000C4B22321144800F002
:101C1000F3F92146124800F0EFF92946104800F088
:101C2000EBF900231A4619460E48006800F0C8FF79
:101C30000EE0012000F0FEFC2321094800F0DCF951
:101C40000021074800F0D8F90021054800F0D4F938
:101C5000BCE7000000000020200000201000002051
:101C6000003801402C0000200EB500200090002418
:101C7000002541E000235A1E01A92048006800F019
:101C8000B1FE002838D001231D480268DDE90101BA
:101C9000FFF758FD012820D001239A1E69461948F4
:101CA000006800F09FFEBDF800000512BDF80000BE
:101CB000C4B22421144800F09FF92146124800F0D4
:101CC0009BF92946104800F097F900231A46194657
:101CD0000E48006800F074FF0EE0012000F0AAFC3E
:101CE0002421094800F088F90021074800F084F910
:101CF0000021054800F080F9BCE700000400002046
:101D00002400002014000020003801403000002092
:101D10000EB5002000900024002541E000235A1E4B
:101D200001A92048006800F05DFE002838D001239A
:101D30001D480268DDE90101FFF704FD012820D0FC
:101D400001239A1E69461948006800F04BFEBDF851
:101D500000000512BDF80000C4B22521144800F0AF
:101D60004BF92146124800F047F92946104800F087
:101D700043F900231A4619460E48006800F020FF78
:101D80000EE0012000F056FC2521094800F034F94E
:101D90000021074800F030F90021054800F02CF937
:101DA000BCE70000080000202800002018000020E8
:101DB000003801403400002010B50E48C06940F0E2
:101DC00001000C49C86148F69F4089040885092034
:101DD000C86200204862012048618007C06840F066
:101DE0000100C8600120088002211C20FEF7C4FC0D
:101DF00010BD0000001002404648C06940F00400D9
:101E00004449C8610846406940F48020486142481E
:101E1000006820F44030404908600846006840F4FB
:101E200000300860081D008820F48070091D0880BB
:101E3000081D006840F44030091D086036480068FD
:101E400020F44020344908600846006840F400202F
:101E50000860081D008820F40070091D0880081D16
:101E6000006840F44020091D08602B48406A40F09B
:101E70002201294841622948006840F480702749BE
:101E800008600846006840F4805008602348243009
:101E9000006840F400402149243108601F48001FB9
:101EA000006820F003001D49091F0860084600680B
:101EB00020F0700008600846006820F44070086058
:101EC0000846006820F4E04008600846006840F0DA
:101ED000600008600846006840F4C04008600F4891
:101EE0002038008820F010000C492039088008466E
:101EF000008820F06000088015200849083108801B
:101F00004FF6AA70091D0860012004492039088095
:101F10007047000000100240000400482008004004
:101F200010B52F48406940F400302D4948614FF00A
:101F30009040006820F470104FF09041086008460F
:101F4000006840F4201008600846806840F4701073
:101F500088600846406A40F4EE614FF0904041626C
:101F60001F48006B20F003001D4908630846006B02
:101F700040F0010008630846806940F480408861B1
:101F80001848006820F4805016490860081D006851
:101F900020F44050091D086040F2712011490C31B5
:101FA00008801048006840F008000E4908600846A4
:101FB000006840F0040008600846006840F0200017
:101FC000086001212520FEF7EBFB2520FEF7C8FB6A
:101FD0000448006840F001000249086010BD00009C
:101FE000001002400038014000BFC26902F0400208
:101FF000002AFAD00185704700BFC26902F0400292
:10200000002AFAD00185704730B505460B460024FA
:1020100005E02046641C195C2846FFF7E5FF185DC3
:102020000028F6D130BD01460A69D1E90130986037
:10203000D1E9010358605068884201D18868506036
:10204000002008611068401E106010687047000092
:1020500010B51A480068401C1849086000F0D6FE08
:1020600017490968401AB0F57A7F25D900F0CEFEED
:10207000134908601148006812490968884203DD65
:102080000E4800680F4908600C4890ED000AB8EE51
:10209000C01A0C4890ED000AB8EEC00AC1EE000A62
:1020A0009FED090A9FED081A01EE600A074880EDCE
:1020B000000A00200149086010BD00007C000020DB
:1020C00078000020800000200000C8426800002046
:1020D00013E00A48806940F40060084988614FF4C1
:1020E000FA7000F0A7FA0548806940F000600349E3
:1020F00088614FF4FA7000F09DFAEAE7001000489A
:1021000011E00948806940F4005007498861642063
:1021100000F090FA0448806940F00050024988615C
:10212000642000F087FAECE70010004810B586B094
:1021300004461C20012181404209920002F1E02264
:10214000C2F8001100BF5548006800F075FB544804
:10215000006800F071FB5348006800F06DFB01203F
:102160008DF8110004208DF8150000208DF8100066
:1021700001208DF8140041F28830ADF812000023E0
:1021800049480268DDE90401FFF7DCFA0A2000F0A3
:1021900051FA58214548FFF72FFF00214348FFF728
:1021A0002BFF00214148FFF727FF01208DF8090090
:1021B00004208DF80D0001208DF808008DF80C002A
:1021C0004FF4FA60ADF80A00002339480268DDE9EF
:1021D0000201FFF7B7FA0A2000F02CFA5921334820
:1021E000FFF70AFF00213148FFF706FF00212F48C3
:1021F000FFF702FF01208DF8010004208DF8050093
:1022000002208DF8000001208DF804006420ADF854
:102210000200002327480268DDE90001FFF792FA77
:102220000A2000F007FA60212048FFF7E5FE0021B0
:102230001E48FFF7E1FE00211C48FFF7DDFE0A20E3
:1022400000F0F8F900211420FFF7A0F91821174831
:10225000FFF7D2FE1148006800F074FA10480068D9
:1022600000F070FA0F48006800F06CFA0A2000F0E5
:10227000E1F930210D48FFF7BFFE0F48006800F07C
:10228000DBFA0E48806940F000500C4988610C4828
:10229000006800F0D1FA06B010BD00004400002034
:1022A000480000205000002020000020003801409D
:1022B00024000020280000204C00002000100048CE
:1022C0004000002000F1080141604FF0FF318160C3
:1022D00000F10801C1600161002101607047002127
:1022E0000161704710B502460B685C1C0CB910699F
:1022F00007E002F1080000E04068446824689C425E
:10230000FAD944684C604C68A160886041600A61F9
:102310001468641C146010BD42684A6093688B6046
:10232000936859609160086103685B1C03607047A3
:1023300000BFBF2080F31188BFF34F8FBFF36F8FB3
:1023400000BF03480068401C014908607047000056
:10235000B400002006480068401E05490860084691
:10236000006820B9002080F3118800BF00BF7047CB
:10237000B40000207047000003484FF0E02148619E
:1023800007200861704700003F19010035E0002375
:102390001A4619461948006800F024FB20B127218D
:1023A0001748FFF729FE25E000231A46194615486D
:1023B000006800F017FB20B128211148FFF71CFE30
:1023C00018E000231A4619460F48006800F00AFB7F
:1023D00020B131210A48FFF70FFE0BE000231A4617
:1023E00019460A48006800F0FDFA18B1292104488E
:1023F000FFF702FE012000F01DF9C8E72C000020C5
:102400000038014030000020340000203800002057
:102410000EB50024002500260027A0460322002137
:10242000012000F0C3FA73490860E2E000235A1E5D
:1024300019467048006800F0D5FA002875D06E483B
:102440000078F82872D16C484078012804D002281E
:1024500006D003280CD107E000208DF8040008E026
:1024600001208DF8040004E002208DF8040000E053
:1024700000BF00BF60488078522802D0552808D19C
:1024800003E000208DF8050004E001208DF8050030
:1024900000E000BF00BF5848C07848280ED004DCD8
:1024A000452813D0462819D104E051280AD05328D2
:1024B00014D10FE000208DF8090010E001208DF804
:1024C00009000CE002208DF8090008E003208DF8D7
:1024D000090004E004208DF8090000E000BF00BFFF
:1024E000454A51791079FEF717FCADF80600424ACB
:1024F000D1799079FEF710FCC0B28DF808003E4803
:10250000007AE02875D19DF8040080B900235A1E96
:1025100001A93A48006800F053FB0546012D68D038
:1025200037A13F48FFF770FD63E056E025E09DF8D6
:10253000040001280ED10023821E01A93948006839
:1025400000F03EFB0646012E53D02DA13448FFF784
:102550005BFD4EE09DF8040002284AD10023C21E14
:1025600001A93148006800F02BFB0746012F40D03D
:1025700023A12B48FFF748FD3BE01F480078F928CE
:102580001ED11D484078009000201B498870C870FB
:10259000087148718871C8710846007AE02828D10E
:1025A00000235A1E69462148006800F009FB804656
:1025B000B8F1010F1DD012A11948FFF725FD18E051
:1025C000002404E000200C490855601CC4B2102C03
:1025D000F8DB0020164908700BE0002404E000201E
:1025E00005490855601CC4B2102CF8DB00201049C6
:1025F00008701BE73C000020F400002000000020D1
:10260000436F756C64206E6F742073656E64207404
:102610006F207468652071756575652E0D0A000060
:102620000038014004000020080000200C000020B9
:102630005400002070B50446002544B100F05AF95A
:1026400000212046FEF760FC00F0F6FC05463DB98F
:102650004FF0805003490860BFF34F8FBFF36F8F77
:1026600070BD000004ED00E00120014908607047E2
:10267000DC00002070B505460C460548016818319D
:102680002846FFF72FFE01212046FEF73DFC70BDD6
:10269000B800002070B505462C46002D4BD02649C9
:1026A000E06A0968C96A884245D2A06900F0004022
:1026B00028B921480068C06AC0F10500A061E16A3C
:1026C00001EB81011D4A02EB81016069884201D161
:1026D000012000E0002050B3201DFFF7A4FC78B9D2
:1026E000E06A00EB8000154951F8200040B994F8E9
:1026F0002C1001208840124909688143104801606C
:102700000D480068C06AE06294F82C1001208840EF
:102710000B49096808430A490860E16A01EB810135
:10272000064A02EB8100211DFFF7F6FD03E0024897
:102730000068C06AE06270BDB8000020004500205B
:10274000D000002070B505462C4674B317480068C9
:1027500084422AD0FFF7ECFD2046FEF7EBFD10B3D4
:10276000201DFFF760FC94F82C10012088401049D0
:10277000096808430E490860E16A01EB81010D4ACE
:1027800002EB8100211DFFF7C7FD0849E06A0968D7
:10279000C96A884207D34FF0805007490860BFF3E9
:1027A0004F8FBFF36F8FFFF7D5FD70BDB8000020CE
:1027B000D00000200045002004ED00E00349096836
:1027C000016003490968416070470000E000002093
:1027D000CC0000201CB5114800210B468022CDE919
:1027E00000100FA1104800F0E1FA0446012C14D1AA
:1027F00000BFBF2080F31188BFF34F8FBFF36F8FEF
:1028000000BF4FF0FF300949086001200849086007
:1028100000200849086000F0A5F81CBDEC0000206D
:1028200049444C450000000071110008E8000020F8
:10283000D4000020CC00002070B50546FFF778FDDD
:1028400015B92548006800E028460446201DFFF71A
:10285000EAFB78B9E06A00EB8000204951F82000DB
:1028600040B994F82C10012088401D490968814323
:102870001B480160A06A18B104F11800FFF7D3FBF0
:10288000211D1848FFF748FDFFF764FD1648006852
:1028900028B1FFF74DFDFEF727FDFFF75BFD0E4862
:1028A0000068844217D11048006840B14FF0805052
:1028B0000E490860BFF34F8FBFF36F8F0BE00948DD
:1028C00000680B490968884203D10020024908606A
:1028D00001E000F017F870BDB800002000450020AE
:1028E000D0000020B4450020D400002004ED00E01A
:1028F000C800002002480068401C01490860704779
:10290000F00000201248006818B101201149086049
:102910001DE000200F4908600F480068B0FA80F001
:10292000C0F11F0101EB81020C4B03EB82004268F6
:102930005268426000F108024368934202D1426843
:10294000526842604268D268054B1A6000BF704707
:10295000F0000020DC000020D00000200045002016
:10296000B800002010B50E48006840F47F000C4904
:1029700008600846006840F07F400860FFF7FCFCF4
:10298000002008490860FDF76FFC0748006840F028
:10299000404005490860FDF757FC002010BD0000CD
:1029A00020ED00E0B400002034EF00E02DE9F84312
:1029B00007460D4690460DB9002601E007FB05F6D7
:1029C00006F14800FEF716FD044644B104F148093B
:1029D00043464A46294638460094FEF7DFFB204628
:1029E000BDE8F8832DE9FF4782B0054689461E46BB
:1029F0004FF0000A2C4600BFFFF79AFCD4F838804D
:102A0000B8F1000F3BD0E76849462046FEF754FB7B
:102A1000DEB9A8F10100A063206810B9FEF722FD1D
:102A20006060206908B9012000E0002008BB04F1C3
:102A3000100000F0C1FAE0B14FF080503F4908604B
:102A4000BFF34F8FBFF36F8F13E0E760606A08B981
:102A5000012000E0002060B904F1240000F0ACFA8D
:102A600038B14FF0805035490860BFF34F8FBFF346
:102A70006F8FFFF76FFC012006B0BDE8F087049868
:102A800018B9FFF767FC0020F6E7BAF1000F04D190
:102A90006846FFF793FE4FF0010AFFF75BFCFFF774
:102AA00029FFFFF745FC94F94400401C10B90020B1
:102AB00084F8440094F94500401C10B9002084F8C3
:102AC0004500FFF747FC04A9684600F041F940BB08
:102AD0002046FEF7EDFBF0B1206830B9FFF728FC87
:102AE0006068FFF7D7FDFFF735FC04F12400049977
:102AF000FFF7C0FD2046FEF73DFC00F09DFA0028E0
:102B00007FF47AAF4FF080500C490860BFF34F8FCD
:102B1000BFF36F8F70E72046FEF72CFC00F08CFAB5
:102B20006AE72046FEF726FC00F086FA2046FEF70C
:102B3000BFFB0028EED000209EE7000004ED00E07F
:102B400070B505460E462C46FFF7F2FBD4E90F128E
:102B5000206801FB020060600020A0632068A06084
:102B6000E06B401E226C216800FB0210E060FF2039
:102B700084F8440084F845009EB9206908B9012012
:102B800000E00020A8B904F1100000F015FA80B1AF
:102B90004FF0805009490860BFF34F8FBFF36F8F2C
:102BA00007E004F11000FFF78DFB04F12400FFF7AC
:102BB00089FBFFF7CFFB012070BD000004ED00E0B2
:102BC0002DE9FF4383B0074688461D464FF00009B4
:102BD0003C4600BFFFF7ACFBA06BE16B884201D322
:102BE000022D28D12A4641462046FEF77AFA0646AB
:102BF000606A08B9012000E0002068B904F12400EF
:102C000000F0DAF988B14FF0805032490860BFF324
:102C10004F8FBFF36F8F08E03EB14FF080502D49CA
:102C20000860BFF34F8FBFF36F8FFFF793FB012057
:102C300007B0BDE8F083059818B9FFF78BFB0020BB
:102C4000F6E7B9F1000F04D101A8FFF7B7FD4FF087
:102C50000109FFF77FFBFFF74DFEFFF769FB94F9D2
:102C60004400401C10B9002084F8440094F9450049
:102C7000401C10B9002084F84500FFF76BFB05A944
:102C800001A800F065F8F0B92046FEF71EFBA0B1E0
:102C900004F110000599FFF7EDFC2046FEF76AFBF2
:102CA00000F0CAF9002895D14FF08050094908601A
:102CB000BFF34F8FBFF36F8F8CE72046FEF75AFBB1
:102CC00000F0BAF986E72046FEF754FB00F0B4F9AD
:102CD0000020ADE704ED00E02DE9F04705460E4683
:102CE0002C4600BFBF21EFF3118081F31188BFF3A1
:102CF0004F8FBFF36F8F00BF8046D4F83890E06BE2
:102D000048451DD994F945A009F10100A0630AF1D5
:102D1000010070B9606A08B9012000E0002068B9BC
:102D200004F1240000F048F940B13EB101203060C8
:102D300004E00AF1010040B284F84500012700E0F8
:102D4000002700BF88F3118800BF3846BDE8F08730
:102D500070B504460D46FFF7EBFA12480268286882
:102D6000401C08B9002619E00F492068096888420C
:102D700004D06068904201D801260FE06068101A04
:102D80002968884209D228686168511A401A286067
:102D90002046FFF713FD002600E00126FFF7DAFAD0
:102DA000304670BDCC000020E00000202DE9FF4F30
:102DB00085B0804689461746DDE912ABB800FEF7BC
:102DC00019FB064656B15420FEF714FB04460CB11D
:102DD000266304E03046FFF7CDFA00E000247CB122
:102DE0000020CDE900ABCDE902403A4649464046D5
:102DF000089BFEF7E6F92046FEF7D2F8012501E030
:102E00004FF0FF35284609B0BDE8F08F014908684A
:102E100070470000CC0000202DE9F04100273A481F
:102E20000068002863D139480068451C37480560B0
:102E30008DB93748D0F800803648006834490860BA
:102E40003448C0F8008034480068401C32490860AB
:102E5000FEF74AFA00BF3148006885423BD300BF05
:102E60002B480068006808B9012000E0002020B16C
:102E70004FF0FF30294908602CE025480068C06801
:102E8000C4686668B54202D22448066022E0201D6C
:102E9000FFF7C9F8A06A18B104F11800FFF7C3F8EA
:102EA00094F82C10012088401D49096808431C49EA
:102EB0000860E16A01EB81011A4A02EB8100211DE1
:102EC000FFF72AFA1849E06A0968C96A8842C7D335
:102ED0000127C5E700BF14480068C06A00EB800006
:102EE000104951F82000012800D9012704E00F48BB
:102EF0000068401C0D4908600D48006800B10127BA
:102F00003846BDE8F0810000F0000020CC00002031
:102F1000BC000020C0000020E0000020E8000020ED
:102F2000D000002000450020B8000020D80000207C
:102F3000DC00002070B505462C460026ADB3A06C21
:102F4000401EA064616CE06A88422ED0A06C60BB19
:102F5000201DFFF768F878B9E06A00EB800014499B
:102F600051F8200040B994F82C10012088401149F4
:102F7000096881430F480160606CE062E06AC0F15B
:102F80000500A06194F82C100120884009490968C7
:102F9000084308490860E16A01EB8101044A02EB39
:102FA0008100211DFFF7B8F90126304670BD0000F1
:102FB00000450020D000002070B50646F068C468C7
:102FC00004F11800FFF72FF815480068A8B9201D74
:102FD000FFF729F894F82C1001208840114909685E
:102FE000084310490860E16A01EB81010E4A02EBD7
:102FF0008100211DFFF790F904E004F118010B484E
:10300000FFF78AF90A49E06A0968C96A884204D95F
:10301000012501200749086000E00025284670BD11
:10302000F0000020D0000020004500208C4500204A
:10303000B8000020DC00002070B500240026FFF757
:1030400077F92E480068401E2C4908600846006841
:1030500000284FD12A48006800284BD024E0294896
:10306000C068C46804F11800FEF7DDFF201DFEF7FC
:10307000DAFF94F82C10012088402349096808439E
:1030800021490860E16A01EB8101204A02EB8100DD
:10309000211DFFF741F91E49E06A0968C96A8842A3
:1030A00002D301201B4908601648006808B90120B6
:1030B00000E000200028D2D00CB1FEF715F9164828
:1030C000056865B100BFFFF7A7FE10B101201149E7
:1030D00008606D1E002DF6D100200F4908600D48D4
:1030E000006838B1012630070C490860BFF34F8FE4
:1030F000BFF36F8FFFF72EF9304670BDF000002050
:10310000C80000208C450020D00000200045002091
:10311000B8000020DC000020D800002004ED00E012
:103120004FF04070E1EE100A7047000000040048C4
:103130000C00010100010100000400480E00010123
:1031400000010100000400480D0001010001010020
:1031500000040048010001010001010000040048D2
:103160000A00010100010100000400480B000101F8
:1031700000010100001400480900000100000000E7
:1031800000000048010001010001010000000048AA
:1031900002000101000101000000004800000101DF
:1031A00000010100000000480300010100010100CE
:1031B0000004004800000101000101000004004873
:1031C0000200010100010100001400480A00000192
:1031D00000000000000C0048010001010001010096
:1031E000000C00480200010100010100000C004831
:1031F0000300010100010100000C0048040000016F
:10320000000000002432000800000020F40000004C
:10321000C401000818330008F4000020344B0000FB
:10322000E0010008000000000000000000000000B5
:10323000000000000000000000000000000000008E
:10324000000000000000000000000000000000007E
:10325000000000000000000000000000000000006E
:10326000000000000000000000000000000000005E
:10327000000000000000000000000000000000004E
:10328000000000000000000000000000000000003E
:10329000000000000000000000000000000000002E
:1032A000000000000000000000000000000000001E
:1032B00000000000000000000002010304050607F2
:1032C00009080A0B0C0D0E100F1100000000000081
:1032D0000000000000000000AAAAAAAA0000000046
:1032E00000000000000000000000000000000000DE
:1032F00000000000000000000000000000000000CE
:1033000000000000000000000000000000000000BD
:083310000000000000000000B5
:04000005080002E10C
:00000001FF
