:020000040800F2
:10000000284C0020E1020008E9020008EB02000889
:10001000ED020008EF020008F102000800000000F5
:10002000000000000000000000000000290200089D
:10003000F5020008000000007D020008610A0008C7
:10004000FB020008FB020008FB020008FB0200089C
:10005000FB020008FB020008FB020008FB0200088C
:10006000FB020008FB020008FB020008FB0200087C
:10007000FB020008FB020008FB020008FB0200086C
:10008000FB020008FB020008FB020008FB0200085C
:10009000FB020008FB020008FB020008FB0200084C
:1000A000FB020008FB020008FB020008FB0200083C
:1000B000190B0008D50B0008FB020008FB02000822
:1000C000FB020008FB020008FB020008FB0200081C
:1000D000FB020008F10B0008FB020008FB0200080D
:1000E000FB020008FB020008FB020008FB020008FC
:1000F000FB020008FB020008FB020008FB020008EC
:10010000000000000000000000000000FB020008EA
:10011000FB020008FB020008FB020008FB020008CB
:10012000FB020008FB020008FB020008FB020008BB
:10013000FB020008FB0200080000000000000000B5
:10014000FB020008FB020008FB02000800000000A0
:10015000000000000000000000000000000000009F
:100160000000000000000000FB020008FB02000885
:10017000FB0200080000000000000000000000007A
:1001800000000000FB02000800F002F800F03CF85C
:100190000AA090E8000C82448344AAF10107DA45E2
:1001A00001D100F031F8AFF2090EBAE80F0013F0F8
:1001B000010F18BFFB1A43F001031847842E0000FB
:1001C000A42E0000103A24BF78C878C1FAD852078C
:1001D00024BF30C830C144BF04680C6070470000C1
:1001E0000023002400250026103A28BF78C1FBD840
:1001F000520728BF30C148BF0B6070471FB502F0DF
:10020000ADFE1FBD10B510BD00F004F91146FFF79B
:10021000F5FF00F0EFFD00F022F903B4FFF7F2FF65
:1002200003BC00F029F900002A4B19680868B0E8FF
:10023000F04F80F30988BFF36F8F4FF0000080F319
:10024000118870470000000006480068006880F3CD
:10025000088862B661B6BFF34F8FBFF36F8F00DFC0
:1002600000BF00BF08ED00E0DFF80C00016841F4BA
:1002700070010160704700BF88ED00E0EFF3098076
:10028000BFF36F8F134B1A681EF0100F08BF20EDDD
:10029000108A20E9F04F106008B44FF0BF0080F3DF
:1002A0001188BFF34F8FBFF36F8F02F049FA4FF001
:1002B000000080F3118808BC19680868B0E8F04FA6
:1002C0001EF0100F08BFB0EC108A80F30988BFF34E
:1002D0006F8F7047B8000020EFF305807047000073
:1002E0000948804709480047FEE7FEE7FEE7FEE7CA
:1002F000FEE7FEE7FEE7FEE7FEE7FEE70448054906
:10030000054A064B70470000950A0008890100085D
:1003100028460020284C002028480020284800209B
:10032000032A40F2308010F0030C00F0158011F821
:10033000013BBCF1020F624498BF11F801CB00F8F9
:10034000013B38BF11F8013BA2F1040298BF00F84D
:1003500001CB38BF00F8013B11F0030300F0288007
:10036000083AC0F0088051F8043B083A51F804CB31
:10037000A0E80810F5E7121D5CBF51F8043B40F8F7
:10038000043BAFF30080D20724BF11F8013B11F802
:1003900001CB48BF11F8012B24BF00F8013B00F846
:1003A00001CB48BF00F8012B70477047704770477A
:1003B00010B5203AC0F00B80B1E81850203AA0E800
:1003C0001850B1E81850A0E81850BFF4F5AF5FEA34
:1003D000027C24BFB1E81850A0E8185044BF18C9E7
:1003E00018C0BDE810405FEA827C24BF51F8043B8E
:1003F00040F8043B08BF7047D20728BF31F8023BE2
:1004000048BF11F8012B28BF20F8023B48BF00F875
:10041000012B7047754600F02BF8AE460500694683
:10042000534620F00700854618B020B5FFF766FF59
:10043000BDE820404FF000064FF000074FF00008E5
:100440004FF0000B21F00701AC46ACE8C009ACE866
:10045000C009ACE8C009ACE8C0098D46704710B5CA
:100460000446AFF300802046BDE81040FFF7D5BE3C
:1004700000487047C845002001491820ABBEFEE780
:100480002600020070470000F0B5DDE9054500EBED
:1004900040066D4F57F82660366800EB4007DFF8DE
:1004A000A8C10CEB87073F794FEA470C012707FAF1
:1004B0000CF7BE4300EB4007DFF88CC15CF82770F7
:1004C0003E6000EB4006674657F82660366800EB52
:1004D00040070CEB87073F797F0001FA07F73E439F
:1004E00000EB40075CF827703E6000EB4006674673
:1004F00057F82660B68800EB40070CEB87073F797A
:100500004FEA470C012707FA0CF7BE4300EB400700
:10051000DFF834C15CF82770BE8000EB4006674608
:1005200057F82660B68800EB40070CEB87073F7949
:100530007F0003FA07F73E4300EB40075CF82770A3
:10054000BE8000EB4006674657F82660B66800EBB1
:1005500040070CEB87073F794FEA470C012707FA62
:100560000CF7BE4300EB4007DFF8DCC05CF82770F7
:10057000BE6000EB4006674657F82660B66800EBA1
:1005800040070CEB87073F797F0002FA07F73E43ED
:1005900000EB40075CF82770BE6000EB4006674642
:1005A00057F82660F66800EB40070CEB87073F79A9
:1005B0004FEA470C012707FA0CF7BE4300EB400750
:1005C000DFF884C05CF82770FE6000EB40066746E9
:1005D00057F82660F66800EB40070CEB87073F7979
:1005E0007F0004FA07F73E4300EB40075CF82770F2
:1005F000FE6000EB4006674657F82660B68A00EBBF
:1006000040070CEB870797F804C0012707FA0CF79F
:10061000BE4300EB4007DFF830C05CF82770BE82B5
:1006200000EB4006674657F82660B68A00EB4007A5
:100630000CEB87073F7905FA07F73E4300EB4007CD
:100640005CF82770BE82F0BD682F000801461229B1
:1006500013DC01EB41000A4A52F82000008A01EB4A
:100660004102074B03EB8202137901229A401040AA
:1006700008B1012070470020FCE70020FAE70000E5
:10068000682F00087CB500242248406940F40030FF
:10069000204948610846406940F480204861084686
:1006A000406940F4002048610846406940F48010E9
:1006B00048610846406940F40010486108464069B6
:1006C00040F48000486100BF21E004EB440012497F
:1006D00001EB8000807A04EB44010F4A02EB8101B8
:1006E000497A04EB4405164606EB8505CDE9001072
:1006F0002B7A04EB440506EB8505EA7904EB440507
:1007000006EB8505A979E0B2FFF7BEFE641C122C4A
:10071000DBDB7CBD00100240682F000810B571B112
:1007200000EB40020D4B03EB8202137901229A4049
:1007300000EB4003094C54F823309A610DE000EBC4
:100740004002064B03EB8202137901229A4000EB30
:100750004003024C54F823301A8510BD682F00085E
:1007600000F01F02012191404209920002F1E022B3
:10077000C2F800117047000010B5002807DA0A0718
:10078000140E054A00F00F031B1FD45403E00A07A0
:10079000130E024A135410BD18ED00E000E400E00F
:1007A00010B5002807DA0A07140E054A00F00F03F7
:1007B0001B1FD45403E00A07130E024A135410BD42
:1007C00018ED00E000E400E037B5054614460023CC
:1007D0005A1E01A9284602F011F92146014801F0EC
:1007E00047FB3EBD003801400CB500200190009051
:1007F0002B48006840F480302949086000BF284831
:10080000006800F4003000900198401C01900098AE
:1008100018B90198B0F5A04FF1D12148006800F453
:10082000003010B10120009001E0002000900098FD
:10083000012834D112201B49086019484068184922
:100840004860084640684860084640684860084676
:10085000406820F47C1048600846406840F4E81086
:1008600048600846006840F08070086000BF0C488F
:10087000006800F000700028F9D00948406820F0B6
:100880000300074948600846406840F0020048609D
:1008900000BF0348406800F00C000828F9D10CBDE7
:1008A00000100240002002401CB54F4800680121A2
:1008B00000238022CDE900104CA14E4802F094F9AB
:1008C000012801D000BF00BF00220621322001F024
:1008D0008BFF4949086000220221012001F084FFBA
:1008E0004649086003220021012001F07DFF4449B0
:1008F000086003220021012001F076FF41490860D1
:1009000041480068012100238022CDE900103FA169
:10091000404802F069F9012801D000BF00BF002261
:100920000621322001F060FF3B49086000220221CD
:10093000012001F059FF39490860032200210120FC
:1009400001F052FF3649086003220021012001F026
:100950004BFF34490860344800680121002380229D
:10096000CDE9001031A1334802F03EF9012801D051
:1009700000BF00BF00220621322001F035FF2E49C2
:10098000086000220221012001F02EFF2B4908609F
:1009900003220021012001F027FF294908600322DA
:1009A0000021012001F020FF264908602648006848
:1009B000012100238022CDE9001024A1254802F066
:1009C00013F9012801D000BF00BF0022012105203A
:1009D00001F00AFF2049086003220021012001F0F4
:1009E00003FF1E4908601CBD840000204D6F746F1A
:1009F00072310000691A0008000000201000002079
:100A00001C00002028000020880000204D6F746F1B
:100A100072320000011B00080400002014000020B6
:100A2000200000202C0000208C0000204D6F746FEF
:100A300072330000991B00080800002018000020F5
:100A400024000020300000209000002047726970D0
:100A500070657200351A00080C0000203400002078
:100A600010B500BFBF2080F31188BFF34F8FBFF3D5
:100A70006F8F00BF02F0EEF818B14FF080500449BC
:100A8000086000BF002080F3118800BF10BD000087
:100A900004ED00E010B51B48006840F470001949EF
:100AA00008601948006840F00100174908600846CE
:100AB00040681649084014494860084600681449CF
:100AC0000840114908600846006820F4802008604A
:100AD0000846406820F4FE0048600846C06A20F0DE
:100AE0000F00C8620846006B0A49084006490863BF
:100AF00000208860FFF778FE4FF0006001498039E0
:100B0000086010BD88ED00E0001002400CC07FF8C6
:100B1000FFFFF6FECCFC00FF10B50020274908605F
:100B20004FF08040006900F00100002844D04FF0F1
:100B30008040006920F001004FF0804108612048AA
:100B4000007800F019FD50BB1D48007828B91B49FA
:100B50001C48006801F0DEFF12E019480078012807
:100B600005D116491848006801F0D4FF08E0144880
:100B70000078022804D111491448006801F0CAFF26
:100B80000E48006801280AD10C48006838B14FF0BF
:100B900080500F490860BFF34F8FBFF36F8F084835
:100BA0000078022803D100200549087004E00448B9
:100BB0000078401C0249087010BD0000740000203D
:100BC0006C0000201C0000202000002024000020D9
:100BD00004ED00E00548006800F0010028B103487A
:100BE000006820F0010001490860704710040040CF
:100BF00010B500203F4908603F48006800F0200021
:100C000000286BD03C48006820F020003A4908607A
:100C10003A4800780C280CDA374808300088384900
:100C2000364A1278885435480078401C3349087099
:100C30005FE03248007810280EDA2F48083000882C
:100C4000C1B22E4800780C382E4A11542B48007837
:100C5000401C2A4908704CE028480078102848D1E8
:100C600000202649087028480088401C2649088032
:100C7000244800F05BF8254908600321204800F073
:100C80007DF82349086008460068204909688842C1
:100C90000AD020480088401C1E4908800A211648B6
:100CA0001C3801F0E5F809E012491B48006801F022
:100CB00031FF1D2110481C3801F0DAF80D4800689A
:100CC000012816D10B48006898B14FF080501349A5
:100CD0000860BFF34F8FBFF36F8F0AE0252000F04D
:100CE0001F02012191400E4A430942F8231000BF20
:100CF00000BF10BD700000201C38014050000020D3
:100D0000F400002051000020640000205800002062
:100D10005C000020620000203800002004ED00E0AC
:100D200080E100E0024641EA02207047014608786F
:100D300000064A7840EA02408A7840EA0220CA78EF
:100D4000104370470B48406940F040000949486132
:100D50004FF0FF30084908610846806840F0010004
:100D6000886000BF0448806800F001000028F9D1C5
:100D700070470000001002400030024030B50246CB
:100D80000B460020084CA46844F00104064DAC60FA
:100D9000002104E052F82140034D2C60491C994287
:100DA000F8D3014C206830BD003002400C48406947
:100DB00040F400100A4948610A4800680A4908439B
:100DC0000849086008460068084908400549086065
:100DD0000846806806490843024988607047000059
:100DE000001002400010004800005555FFFF555507
:100DF0000000FFFF1CB500F061FBFFF7D7FF00F01C
:100E0000CBFFFFF79FFFFFF73DFCFFF74DFD00F025
:100E10000FFF00F02DFF2548012100238022CDE99E
:100E2000001023A1264801F0DFFE012801D000BFF9
:100E300000BF2448012100238022CDE9001022A117
:100E4000244801F0D1FE012801D000BF00BF224894
:100E5000012100238022CDE9001020A1244801F0C7
:100E6000C3FE012801D000BF00BF2248012100239A
:100E70008022CDE9001020A1214801F0B5FE012813
:100E800001D000BF00BF1F48012100238022CDE90F
:100E900000101DA11E4801F0A7FE012801D000BFCF
:100EA00000BF01F0B5FB00201CBD00004C0000207D
:100EB0005265616453656D6170686F726500000012
:100EC000C92100083C000020426F6F744C6F6164C0
:100ED00065720000A51F000848000020426C696E82
:100EE0006B6572426F6F744C6F61646572000000D5
:100EF000791F000840000020426C696E6B6572002B
:100F0000491F00084400002053656E6465720000AC
:100F10004D2200082DE9F04105460E461C480768A1
:100F20001C480068001D00F0BAFF50B9194800685D
:100F300090F82C1001208840174909688143164811
:100F40000160681C38B936B112480168091D1348A0
:100F500001F000F91AE07C190E4800684460BC42B8
:100F600007D20C480168091D0D48006801F0D8F847
:100F70000CE008480168091D0A48006801F0D0F833
:100F800009480068844201D207480460BDE8F08146
:100F9000CC000020B8000020D0000020B445002084
:100FA000C0000020BC000020E800002010B504466E
:100FB00001F0DCF823480068401C22490860224800
:100FC000006840B9204804600846006801280DD137
:100FD00000F040F90AE01D48006838B91A48006876
:100FE000C06AE16A884201D817480460184800685E
:100FF000401C1749086094F82C10012088401549BE
:101000000968084313490860E16A01EB8101124A4B
:1010100002EB8100211D01F09DF801F0B9F80B48A9
:10102000006868B108480068C06AE16A884207D26F
:101030004FF0805009490860BFF34F8FBFF36F8FA7
:1010400010BD0000C8000020B8000020D40000201F
:10105000E4000020D00000200045002004ED00E066
:1010600070B523E001F064FB1348006808B9012063
:1010700000E00020054601F0FDFEBDB901F076F864
:101080000D48C068C468201D00F009FF0B480068C7
:10109000401E0A4908600A480068401E0849086066
:1010A00001F076F8204600F060F800BF04480068C0
:1010B0000028D7D170BD0000A0450020C800002046
:1010C000C400002070B504460D46206C70B1216C40
:1010D000E0680844E0606168E068884201D3206805
:1010E000E0602846226CE168FFF71AF970BD2DE92F
:1010F000F04104460F4615464FF00008A66B206CE1
:1011000040B9206860BB606801F032FE8046002074
:10111000606025E07DB93946226CA068FFF700F9D0
:10112000216CA0680844A060D4E90110884217D35C
:101130002068A06014E03946226CE068FFF7F0F800
:10114000216CE068401AE0602168E068884203D2C0
:10115000216C6068401AE060022D01D106B1761E54
:10116000701CA0634046BDE8F08110B50446206BBA
:1011700001F01EF8204601F01BF810BD00BFFFF77C
:101180006FFF07480068012807D94FF080500549D4
:101190000860BFF34F8FBFF36F8F00F095FEEEE74F
:1011A0000045002004ED00E02DE9F04106460D4623
:1011B00017469846069C0DB9246000E02760E66358
:1011C00025640121204601F0D9FBBDE8F0812DE91D
:1011D000FF5F80460F469146DDE90E6A109CA9F13B
:1011E0000100216B01EB800B2BF0070B002507E0C2
:1011F000795D04F134004155785D00B902E06D1C61
:10120000102DF5D300BF002143200155052E00D33A
:101210000426E66266640020A064201D00F07DFFC5
:1012200004F1180000F079FF2461C6F10500A06107
:1012300064620020E06484F8500041465846039AF6
:1012400000F026F92060BAF1000F01D0CAF8004082
:10125000BDE8FF9F10B5002407E004EB84010F4AAE
:1012600002EB810000F04CFF641C052CF5D30C4808
:1012700000F046FF0B4800F043FF0B4800F040FF32
:101280000A4800F03DFF0A4800F03AFF04480949C7
:10129000086004480849086010BD000000450020AF
:1012A00064450020784500208C450020A0450020A2
:1012B000B4450020BC000020C000002070B50546E9
:1012C00000F054FFA86B08B9012400E0002400F0EE
:1012D0005FFF204670BD70B5054600F047FFA86B64
:1012E000E96B884201D1012400E0002400F050FFA6
:1012F000204670BD0A490968096809B9012100E062
:10130000002121B14FF0FF31064A116006E0044987
:101310000968C968C868034A4168116070470000DD
:10132000BC000020E800002000BFBF2080F311882F
:10133000BFF34F8FBFF36F8F00BF00BFFEE700000A
:1013400010B5014600200A460B4C5369A34201D157
:10135000012300E0002373B1084C936AA34201D13A
:10136000012300E0002333B9936A0BB9012300E0A5
:10137000002303B1012010BDB44500208C4500209E
:1013800070B5044600F0F2FE94F9455010E0606A32
:1013900008B9012000E0002038B904F1240001F070
:1013A00029FD18B101F07EF800E003E0681E45B2A7
:1013B000002DECDC00BFFF2084F8450000F0E8FEC3
:1013C00000F0D4FE94F9445010E0206908B90120DF
:1013D00000E0002048B904F1100001F00BFD08B155
:1013E00001F060F8681E45B200E001E0002DECDC81
:1013F00000BFFF2084F8440000F0CAFE70BD00006A
:1014000070B50446002504F0070020B104F0070081
:10141000C0F10800044401F08BF91248006820B9BB
:10142000114820F007000F49086010480068204468
:1014300044F2F831884210D20C48006820440B492D
:101440000968884209D907480068084909684518A9
:101450000648006820440549086001F00BFD284655
:1014600070BD0000B000002008010020AC0000208A
:101470000648006830B10549096801F14800896CE7
:10148000491C01600148006870470000B800002056
:10149000001F4FF080730360001F21F00103036001
:1014A000001F054B036014380260001F6FF0020339
:1014B0000360203870470000291300082C4800689A
:1014C00040F480302A49086000BF2948006800F4D1
:1014D00000300028F9D013202649086024484068CD
:1014E000234948600846406848600846406840F420
:1014F000205048600846406820F470104860084654
:10150000406820F4803048600846406820F400308D
:1015100048600846406840F48030486008464068AB
:1015200040F4003048600846406840F4E0104860ED
:101530000846006840F08070086000BF0C480068F2
:1015400000F000700028F9D00948406820F003003E
:10155000074948600846406840F00200486000BF04
:101560000348406800F00C000828F9D170470000DB
:10157000001002400020024010B50446C4EBC40134
:10158000044A11448879FFF761F808B1012010BDC1
:101590000020FCE794000020C0EBC00101EB8101BA
:1015A00041F64C52511A074A1160C0F15A01C1EB81
:1015B000C10101EB810141F64C52511A014A121F3F
:1015C000116070474008004070B504460D46052D77
:1015D0007ED2DFE805F0031C354E6700C4EBC40182
:1015E0003F4A1144C8780021FFF798F8C4EBC401C2
:1015F0003B4A114408790021FFF790F8C4EBC4017D
:10160000374A114448790021FFF788F866E0C4EBB7
:10161000C401334A1144C8780121FFF77FF8C4EBB5
:10162000C4012F4A114408790021FFF777F8C4EB71
:10163000C4012B4A114448790021FFF76FF84DE0AF
:10164000C4EBC401264A1144C8780021FFF766F8AC
:10165000C4EBC401224A114408790121FFF75EF866
:10166000C4EBC4011E4A114448790021FFF756F823
:1016700034E0C4EBC4011A4A1144C8780121FFF7D1
:101680004DF8C4EBC401164A114408790121FFF753
:1016900045F8C4EBC401124A114448790021FFF710
:1016A0003DF81BE0C4EBC4010D4A1144C878012188
:1016B000FFF734F8C4EBC401094A11440879012149
:1016C000FFF72CF8C4EBC401054A1144487900E047
:1016D00003E00121FFF722F800E000BF00BF70BD6A
:1016E000940000202DE9FE4F05468A4617469B468A
:1016F000DDF83090DDF838800020029001900090F5
:101700000124C5EBC501AE4A114488780021FFF7DA
:1017100005F8022D03D028460D99FFF755FFB8F1C3
:10172000000F1BD13DB900235A1E02A9A54800682D
:1017300001F076F812E0012D07D100235A1E01A90D
:10174000A148006801F06CF808E0022D06D10023E2
:101750005A1E69469D48006801F062F8BAF1000F10
:1017600000D16442002625E100231A461946484666
:1017700001F056F800286FD095480068814533D1B4
:10178000B8F1010F09D1002002905422BDF80810D1
:101790008C480068FFF718F80FE1B8F1000F7DD111
:1017A000BDF808002044002807DA7022BDF80810B0
:1017B00084480068FFF708F8FFE0BDF808002044FF
:1017C00080B20290781EB04206D15422BDF80810B3
:1017D0007C480068FEF7F8FF5146284600F0FEF806
:1017E000584600F045FEE3E07A480068814534D170
:1017F000B8F1010F09D1002001904422BDF8041076
:1018000071480068FEF7E0FFD7E0B8F1000FC6D1DD
:10181000BDF804002044002807DA7122BDF8041046
:1018200069480068FEF7D0FFC7E0BDF80400204417
:1018300080B20190781EB04206D14422BDF8041057
:1018400061480068FEF7C0FF5146284600F0C6F820
:10185000584600F00DFEABE038E05F480068814577
:101860009DD1B8F1010F09D1002000906422BDF88C
:10187000001056480068FEF7A7FF9EE0B8F1000F81
:101880008DD1BDF800002044002808DA7222BDF88E
:1018900000104E480068FEF797FF8EE087E0BDF825
:1018A0000000204480B20090781EB04206D164222D
:1018B000BDF8001045480068FEF786FF51462846EF
:1018C00000F08CF8584600F0D3FD71E01DBBBDF868
:1018D00008002044002807DA7022BDF808103948B3
:1018E0000068FEF771FF68E0BDF80800204480B290
:1018F0000290781EB04206D15422BDF8081031483B
:101900000068FEF761FF5146284600F067F8584628
:1019100000F0AEFD4CE0012D23D1BDF804002044C1
:10192000002807DA7122BDF8041027480068FEF786
:101930004BFF42E0BDF80400204480B20190781EC5
:10194000B04206D14422BDF804101F480068FEF7DB
:101950003BFF5146284600F041F8584600F088FD0C
:1019600026E0022D23D1BDF800002044002807DA2C
:101970007222BDF8001015480068FEF725FF1CE034
:10198000BDF80000204480B20090781EB04206D11D
:101990006422BDF800100D480068FEF715FF51469F
:1019A000284600F01BF8584600F062FD00E000BF3A
:1019B000701C86B2BE42FFF6D7AE00BFBDE8FE8FF8
:1019C00094000020100000201400002018000020C7
:1019D0001C000020200000202400002070B50446D8
:1019E0000D460DB1012200E000221146C4EBC402F5
:1019F0000E4B985CFEF792FEC4EBC4010B4A1144F7
:101A000048780021FEF78AFE4FF0805008490860B0
:101A1000BFF34F8FBFF36F8FC4EBC401034A114470
:101A200048780121FEF77AFE70BD00009400002086
:101A300004ED00E008B512E000235A1E694608488C
:101A4000006800F0EDFE50B19DF80000FFF7A4FD26
:101A500000231A4619460348006800F0CFFFEBE761
:101A60000C0000203400002086B0002003900024E9
:101A7000002539E000235A1E04A91C48006800F024
:101A8000CFFE88B300219DF81500194A1268CDE9F0
:101A9000002002919DF81430BDF812209DF811101D
:101AA0009DF81000FFF71EFE01239A1E03A911489E
:101AB000006800F0B5FEBDF80C000512BDF80C0082
:101AC000C4B223210C4800F0D3F921460A4800F0A3
:101AD000CFF92946084800F0CBF900231A461946E9
:101AE0000648006800F08AFFC4E7000000000020FC
:101AF0001C000020100000200038014028000020B9
:101B000086B0002003900024002539E000235A1EEF
:101B100004A91C48006800F083FE88B300219DF8EA
:101B20001500194A1268CDE9002002919DF8143081
:101B3000BDF812209DF811109DF81000FFF7D2FD9E
:101B400001239A1E03A91148006800F069FEBDF840
:101B50000C000512BDF80C00C4B224210C4800F0A2
:101B600087F921460A4800F083F92946084800F021
:101B70007FF900231A4619460648006800F03EFF28
:101B8000C4E7000004000020200000201400002012
:101B9000003801402C00002086B000200390002473
:101BA000002539E000235A1E04A91C48006800F0F3
:101BB00037FE88B300219DF81500194A1268CDE957
:101BC000002002919DF81430BDF812209DF81110EC
:101BD0009DF81000FFF786FD01239A1E03A9114806
:101BE000006800F01DFEBDF80C000512BDF80C00E9
:101BF000C4B225210C4800F03BF921460A4800F008
:101C000037F92946084800F033F900231A461946E7
:101C10000648006800F0F2FEC4E70000080000205B
:101C2000240000201800002000380140300000206F
:101C300010B50E48C06940F001000C49C86148F673
:101C40009F40890408850920C8620020486201205D
:101C500048618007C06840F00100C860012008802A
:101C600002211C20FEF788FD10BD0000001002407C
:101C70004648C06940F004004449C86108464069CC
:101C800040F4802048614248006820F440304049D8
:101C900008600846006840F400300860081D0088AD
:101CA00020F48070091D0880081D006840F4403051
:101CB000091D08603648006820F440203449086057
:101CC0000846006840F400200860081D008820F4E1
:101CD0000070091D0880081D006840F44020091D9F
:101CE00008602B48406A40F0220129484162294897
:101CF000006840F48070274908600846006840F496
:101D00008050086023482430006840F40040214996
:101D1000243108601F48001F006820F003001D499F
:101D2000091F08600846006820F070000860084637
:101D3000006820F4407008600846006820F4E04025
:101D400008600846006840F06000086008460068C7
:101D500040F4C04008600F482038008820F0100090
:101D60000C49203908800846008820F0600008806F
:101D700015200849083108804FF6AA70091D08602F
:101D800001200449203908807047000000100240FB
:101D9000000400482008004010B52F48406940F476
:101DA00000302D4948614FF09040006820F47010D9
:101DB0004FF0904108600846006840F42010086029
:101DC0000846806840F4701088600846406A40F415
:101DD000EE614FF0904041621F48006B20F003001D
:101DE0001D4908630846006B40F00100086308467F
:101DF000806940F4804088611848006820F4805071
:101E000016490860081D006820F44050091D08604C
:101E100040F2712011490C3108801048006840F0F0
:101E200008000E4908600846006840F00400086099
:101E30000846006840F02000086001212520FEF7D8
:101E4000AFFC2520FEF78CFC0448006840F0010040
:101E50000249086010BD0000001002400038014037
:101E600000BFC26902F04002002AFAD00185704723
:101E700000BFC26902F04002002AFAD00185704713
:101E800030B505460B46002405E02046641C195C6D
:101E90002846FFF7E5FF185D0028F6D130BD014662
:101EA0000A69D1E901309860D1E9010358605068AE
:101EB000884201D188685060002008611068401E87
:101EC000106010687047000010B51A480068401C88
:101ED0001849086000F0B8FE17490968401AB0F5C3
:101EE0007A7F25D900F0B0FE1349086011480068D8
:101EF00012490968884203DD0E4800680F490860EE
:101F00000C4890ED000AB8EEC01A0C4890ED000A9B
:101F1000B8EEC00AC1EE000A9FED090A9FED081A4B
:101F200001EE600A074880ED000A002001490860C0
:101F300010BD00007C000020780000208000002000
:101F40000000C8426800002013E00A48806940F49D
:101F50000060084988614FF4FA7000F089FA05487A
:101F6000806940F00060034988614FF4FA7000F026
:101F70007FFAEAE70010004811E00948806940F460
:101F8000005007498861642000F072FA04488069B3
:101F900040F0005002498861642000F069FAECE7E3
:101FA000001000483EB504461C2001218140420932
:101FB000920002F1E022C2F8001100BF464800681A
:101FC00000F058FB4548006800F054FB44480068A6
:101FD00000F050FB01200421424A12680346CDE97B
:101FE0000021029042F2107201460020FFF77AFBB6
:101FF0000A2000F03DFA58213B48FFF739FF002145
:102000003948FFF735FF00213748FFF731FF01203E
:102010000421364A12680346CDE9002102904FF4AC
:10202000FA520146FFF75EFB0A2000F021FA59211F
:102030002D48FFF71DFF00212B48FFF719FF002156
:102040002948FFF715FF01200421294A1268034699
:10205000CDE900210290642201460220FFF742FBF5
:102060000A2000F005FA60211F48FFF701FF002158
:102070001D48FFF7FDFE00211B48FFF7F9FE0A206F
:1020800000F0F6F91420FFF787FA18211648FFF739
:10209000EFFE1148006800F073FA1048006800F085
:1020A0006FFA0F48006800F06BFA0A2000F0E0F9C0
:1020B00030210D48FFF7DCFE0E48006800F0DAFA28
:1020C0000D48806940F000500B4988610B4800685A
:1020D00000F0D0FA3EBD0000400000204400002087
:1020E0004C0000201C00002000380140200000208F
:1020F0002400002048000020001000483C00002080
:1021000000F1080141604FF0FF31816000F10801EA
:10211000C1600161002101607047002101617047C9
:1021200010B502460B685C1C0CB9106907E002F19F
:10213000080000E04068446824689C42FAD944687A
:102140004C604C68A160886041600A611468641C3E
:10215000146010BD42684A6093688B609368596050
:102160009160086103685B1C0360704700BFBF207B
:1021700080F31188BFF34F8FBFF36F8F00BF034809
:102180000068401C0149086070470000B40000204E
:1021900006480068401E054908600846006820B9E6
:1021A000002080F3118800BF00BF7047B4000020FA
:1021B0007047000003484FF0E021486107200861A4
:1021C000704700003F19010035E000231A46194608
:1021D0001948006800F024FB20B127211748FFF7B9
:1021E00047FE25E000231A4619461548006800F00E
:1021F00017FB20B128211148FFF73AFE18E0002311
:102200001A4619460F48006800F00AFB20B1312138
:102210000A48FFF72DFE0BE000231A4619460A482C
:10222000006800F0FDFA18B129210448FFF720FEEC
:102230000A2000F01DF9C8E72800002000380140FE
:102240002C00002030000020340000200EB50024B7
:10225000002500260027A04603220021012000F0CF
:10226000C3FA73490860E2E000235A1E1946704819
:10227000006800F0D5FA002875D06E480078F8287C
:1022800072D16C484078012804D0022806D0032877
:102290000CD107E000208DF8040008E001208DF843
:1022A000040004E002208DF8040000E000BF00BF3D
:1022B00060488078522802D0552808D103E00020D9
:1022C0008DF8050004E001208DF8050000E000BF56
:1022D00000BF5848C07848280ED004DC452813D0E9
:1022E000462819D104E051280AD0532814D10FE010
:1022F00000208DF8090010E001208DF809000CE0A5
:1023000002208DF8090008E003208DF8090004E0A0
:1023100004208DF8090000E000BF00BF454A517954
:102320001079FEF7FFFCADF80600424AD1799079AA
:10233000FEF7F8FCC0B28DF808003E48007AE028AD
:1023400075D19DF8040080B900235A1E01A93A48AE
:10235000006800F053FB0546012D68D037A13F48C7
:10236000FFF78EFD63E056E025E09DF804000128AC
:102370000ED10023821E01A93948006800F03EFBFF
:102380000646012E53D02DA13448FFF779FD4EE0CB
:102390009DF8040002284AD10023C21E01A9314839
:1023A000006800F02BFB0746012F40D023A12B48EB
:1023B000FFF766FD3BE01F480078F9281ED11D4855
:1023C0004078009000201B498870C87008714871DF
:1023D0008871C8710846007AE02828D100235A1E67
:1023E00069462148006800F009FB8046B8F1010FFA
:1023F0001DD012A11948FFF743FD18E0002404E0A6
:1024000000200C490855601CC4B2102CF8DB0020D9
:10241000164908700BE0002404E000200549085527
:10242000601CC4B2102CF8DB0020104908701BE7B8
:1024300038000020F400002000000020436F756C7D
:1024400064206E6F742073656E6420746F207468EE
:10245000652071756575652E0D0A00000038014014
:1024600004000020080000200C0000205000002084
:1024700070B50446002544B100F05AF90021204609
:10248000FEF748FD00F0F6FC05463DB94FF08050E0
:1024900003490860BFF34F8FBFF36F8F70BD00001B
:1024A00004ED00E00120014908607047DC000020D5
:1024B00070B505460C460548016818312846FFF7F7
:1024C0002FFE01212046FEF725FD70BDB80000203B
:1024D00070B505462C46002D4BD02649E06A0968A8
:1024E000C96A884245D2A06900F0004028B9214855
:1024F0000068C06AC0F10500A061E16A01EB8101DA
:102500001D4A02EB81016069884201D1012000E08F
:10251000002050B3201DFFF7C2FC78B9E06A00EB41
:102520008000154951F8200040B994F82C10012082
:102530008840124909688143104801600D480068CD
:10254000C06AE06294F82C10012088400B490968A9
:1025500008430A490860E16A01EB8101064A02EB7F
:102560008100211DFFF7F6FD03E002480068C06A04
:10257000E06270BDB800002000450020D0000020BF
:1025800070B505462C4674B31748006884422AD0BB
:10259000FFF7ECFD2046FEF7D3FE10B3201DFFF73A
:1025A0007EFC94F82C1001208840104909680843EB
:1025B0000E490860E16A01EB81010D4A02EB8100DE
:1025C000211DFFF7C7FD0849E06A0968C96A88420A
:1025D00007D34FF0805007490860BFF34F8FBFF318
:1025E0006F8FFFF7D5FD70BDB8000020D000002030
:1025F0000045002004ED00E003490968016003493B
:102600000968416070470000E0000020CC00002015
:102610001CB5114800210B468022CDE900100FA106
:10262000104800F0E1FA0446012C14D100BFBF208D
:1026300080F31188BFF34F8FBFF36F8F00BF4FF050
:10264000FF30094908600120084908600020084956
:10265000086000F0A5F81CBDEC00002049444C4582
:10266000000000007D110008E8000020D4000020D8
:10267000CC00002070B50546FFF778FD15B9254858
:10268000006800E028460446201DFFF708FC78B9E2
:10269000E06A00EB8000204951F8200040B994F82E
:1026A0002C10012088401D49096881431B480160A6
:1026B000A06A18B104F11800FFF7F1FB211D1848BA
:1026C000FFF748FDFFF764FD1648006828B1FFF7E3
:1026D0004DFDFEF70FFEFFF75BFD0E4800688442DC
:1026E00017D11048006840B14FF080500E49086083
:1026F000BFF34F8FBFF36F8F0BE0094800680B49A2
:102700000968884203D100200249086001E000F016
:1027100017F870BDB800002000450020D000002050
:10272000B4450020D400002004ED00E0C8000020E3
:1027300002480068401C014908607047F000002012
:102740001248006818B10120114908601DE00020FE
:102750000F4908600F480068B0FA80F0C0F11F010F
:1027600001EB81020C4B03EB82004268526842602D
:1027700000F108024368934202D142685268426005
:102780004268D268054B1A6000BF7047F000002015
:10279000DC000020D000002000450020B800002010
:1027A00010B50E48006840F47F000C4908600846E8
:1027B000006840F07F400860FFF7FCFC00200849FB
:1027C0000860FDF751FD0748006840F040400549AA
:1027D0000860FDF739FD002010BD000020ED00E08D
:1027E000B400002034EF00E02DE9F84307460D4621
:1027F00090460DB9002601E007FB05F606F14800FA
:10280000FEF7FEFD044644B104F1480943464A463A
:10281000294638460094FEF7C7FC2046BDE8F883F9
:102820002DE9FF4782B0054689461E464FF0000A53
:102830002C4600BFFFF79AFCD4F83880B8F1000F9F
:102840003BD0E76849462046FEF73CFCDEB9A8F1DC
:102850000100A063206810B9FEF70AFE60602069DD
:1028600008B9012000E0002008BB04F1100000F0CE
:10287000C1FAE0B14FF080503F490860BFF34F8F7D
:10288000BFF36F8F13E0E760606A08B9012000E0D2
:10289000002060B904F1240000F0ACFA38B14FF028
:1028A000805035490860BFF34F8FBFF36F8FFFF73C
:1028B0006FFC012006B0BDE8F087049818B9FFF757
:1028C00067FC0020F6E7BAF1000F04D16846FFF775
:1028D00093FE4FF0010AFFF75BFCFFF729FFFFF7BC
:1028E00045FC94F94400401C10B9002084F84400D1
:1028F00094F94500401C10B9002084F84500FFF70A
:1029000047FC04A9684600F041F940BB2046FEF7A9
:10291000D5FCF0B1206830B9FFF728FC6068FFF7FC
:10292000D7FDFFF735FC04F124000499FFF7C0FD43
:102930002046FEF725FD00F09DFA00287FF47AAFCF
:102940004FF080500C490860BFF34F8FBFF36F8F7B
:1029500070E72046FEF714FD00F08CFA6AE7204687
:10296000FEF70EFD00F086FA2046FEF7A7FC0028D1
:10297000EED000209EE7000004ED00E070B50546B3
:102980000E462C46FFF7F2FBD4E90F12206801FB3C
:10299000020060600020A0632068A060E06B401E21
:1029A000226C216800FB0210E060FF2084F84400E4
:1029B00084F845009EB9206908B9012000E0002094
:1029C000A8B904F1100000F015FA80B14FF0805062
:1029D00009490860BFF34F8FBFF36F8F07E004F121
:1029E0001000FFF78DFB04F12400FFF789FBFFF7D0
:1029F000CFFB012070BD000004ED00E02DE9FF4396
:102A000083B0074688461D464FF000093C4600BF8C
:102A1000FFF7ACFBA06BE16B884201D3022D28D1FC
:102A20002A4641462046FEF762FB0646606A08B920
:102A3000012000E0002068B904F1240000F0DAF978
:102A400088B14FF0805032490860BFF34F8FBFF319
:102A50006F8F08E03EB14FF080502D490860BFF302
:102A60004F8FBFF36F8FFFF793FB012007B0BDE8D7
:102A7000F083059818B9FFF78BFB0020F6E7B9F152
:102A8000000F04D101A8FFF7B7FD4FF00109FFF7D0
:102A90007FFBFFF74DFEFFF769FB94F94400401CF4
:102AA00010B9002084F8440094F94500401C10B986
:102AB000002084F84500FFF76BFB05A901A800F092
:102AC00065F8F0B92046FEF706FCA0B104F110004D
:102AD0000599FFF7EDFC2046FEF752FC00F0CAF91D
:102AE000002895D14FF0805009490860BFF34F8FFF
:102AF000BFF36F8F8CE72046FEF742FC00F0BAF977
:102B000086E72046FEF73CFC00F0B4F90020ADE774
:102B100004ED00E02DE9F04705460E462C4600BFC7
:102B2000BF21EFF3118081F31188BFF34F8FBFF303
:102B30006F8F00BF8046D4F83890E06B48451DD9B0
:102B400094F945A009F10100A0630AF1010070B9F0
:102B5000606A08B9012000E0002068B904F124008F
:102B600000F048F940B13EB10120306004E00AF1C4
:102B7000010040B284F84500012700E0002700BFB3
:102B800088F3118800BF3846BDE8F08770B5044669
:102B90000D46FFF7EBFA124802682868401C08B996
:102BA000002619E00F4920680968884204D060684F
:102BB000904201D801260FE06068101A2968884207
:102BC00009D228686168511A401A28602046FFF728
:102BD00013FD002600E00126FFF7DAFA304670BD4B
:102BE000CC000020E00000202DE9FF4F85B080469A
:102BF00089461746DDE912ABB800FEF701FC064630
:102C000056B15420FEF7FCFB04460CB1266304E0E9
:102C10003046FFF7CDFA00E000247CB10020CDE97A
:102C200000ABCDE902403A4649464046089BFEF7D4
:102C3000CEFA2046FEF7BAF9012501E04FF0FF3544
:102C4000284609B0BDE8F08F0149086870470000C8
:102C5000CC0000202DE9F04100273A480068002808
:102C600063D139480068451C374805608DB937483D
:102C7000D0F8008036480068344908603448C0F80D
:102C8000008034480068401C32490860FEF732FB7F
:102C900000BF3148006885423BD300BF2B48006825
:102CA000006808B9012000E0002020B14FF0FF309B
:102CB000294908602CE025480068C068C468666837
:102CC000B54202D22448066022E0201DFFF7E7F853
:102CD000A06A18B104F11800FFF7E1F894F82C107D
:102CE000012088401D49096808431C490860E16AC1
:102CF00001EB81011A4A02EB8100211DFFF72AFA3C
:102D00001849E06A0968C96A8842C7D30127C5E73C
:102D100000BF14480068C06A00EB8000104951F8F9
:102D20002000012800D9012704E00F480068401C5A
:102D30000D4908600D48006800B101273846BDE81C
:102D4000F0810000F0000020CC000020BC0000203A
:102D5000C0000020E0000020E8000020D00000209B
:102D600000450020B8000020D8000020DC00002032
:102D700070B505462C460026ADB3A06C401EA0647D
:102D8000616CE06A88422ED0A06C60BB201DFFF70A
:102D900086F878B9E06A00EB8000144951F8200009
:102DA00040B994F82C1001208840114909688143EA
:102DB0000F480160606CE062E06AC0F10500A0614C
:102DC00094F82C10012088400949096808430849F3
:102DD0000860E16A01EB8101044A02EB8100211DD8
:102DE000FFF7B8F90126304670BD0000004500200D
:102DF000D000002070B50646F068C46804F11800E1
:102E0000FFF74DF815480068A8B9201DFFF747F8EF
:102E100094F82C1001208840114909680843104992
:102E20000860E16A01EB81010E4A02EB8100211D7D
:102E3000FFF790F904E004F118010B48FFF78AF955
:102E40000A49E06A0968C96A884204D90125012053
:102E50000749086000E00025284670BDF00000200A
:102E6000D0000020004500208C450020B800002044
:102E7000DC00002070B500240026FFF777F92E480B
:102E80000068401E2C4908600846006800284FD1A1
:102E90002A48006800284BD024E02948C068C4684C
:102EA00004F11800FEF7FBFF201DFEF7F8FF94F871
:102EB0002C100120884023490968084321490860F3
:102EC000E16A01EB8101204A02EB8100211DFFF73D
:102ED00041F91E49E06A0968C96A884202D30120A3
:102EE0001B4908601648006808B9012000E000206E
:102EF0000028D2D00CB1FEF7FDF91648056865B17F
:102F000000BFFFF7A7FE10B10120114908606D1E38
:102F1000002DF6D100200F4908600D48006838B137
:102F2000012630070C490860BFF34F8FBFF36F8F46
:102F3000FFF72EF9304670BDF0000020C8000020D9
:102F40008C450020D000002000450020B800002063
:102F5000DC000020D800002004ED00E04FF04070BD
:102F6000E1EE100A70470000000400480C00010167
:102F700000010100000400480E00010100010100F1
:102F8000000400480D000101000101000004004898
:102F90000100010100010100000400480A000101D4
:102FA00000010100000400480B00010100010100C4
:102FB0000014004809000001000000000000004863
:102FC00001000101000101000000004802000101B0
:102FD00000010100000000480000010100010100A3
:102FE0000000004803000101000101000004004846
:102FF000000001010001010000040048020001017D
:1030000000010100001400480A0000010000000057
:10301000000C00480100010100010100000C004803
:103020000200010100010100000C00480300010141
:1030300000010100000C0048040000010000000035
:103040006030000800000020F4000000C401000807
:1030500054310008F4000020344B0000E001000867
:103060000000000000000000000000000000000060
:103070000000000000000000000000000000000050
:103080000000000000000000000000000000000040
:103090000000000000000000000000000000000030
:1030A0000000000000000000000000000000000020
:1030B0000000000000000000000000000000000010
:1030C0000000000000000000000000000000000000
:1030D00000000000000000000000000000000000F0
:1030E00000000000000000000000000000000000E0
:1030F00000000000000201030405060709080A0B8E
:103100000C0D0E100F110000000000000000000068
:1031100000000000AAAAAAAA000000000000000007
:10312000000000000000000000000000000000009F
:10313000000000000000000000000000000000008F
:10314000000000000000000000000000000000007F
:04315000000000007B
:04000005080002E10C
:00000001FF
